:100000000C942A000C9447000C9447000C94470071
:100010000C9447000C9447000C9447000C94470044
:100020000C9447000C9447000C9447000C94470034
:100030000C9447000C9447000C9447000C94470024
:100040000C9447000C9447000C9447000C94470014
:100050000C94470011241FBECFE5D4E0DEBFCDBF16
:1000600010E0A0E6B0E0EAEBFEE002C005900D92E1
:10007000AE3AB107D9F720E0AEEAB0E001C01D9278
:10008000A03CB207E1F70E94A2030C945B070C941A
:10009000000085B3806485BB00C085B38F7B85BBC2
:1000A0000895CF93DF93D82F662321F085B3806125
:1000B00085BB03C085B38F7E85BB85B38F7D85BB34
:1000C00084B38F6084BBC5B3C07F8D2F82958F7042
:1000D0008C2B85BB0E944900DF70DC2BD5BB0E94B6
:1000E0004900CF60C5BBDF91CF910895882321F0EF
:1000F00085B3806185BB03C085B38F7E85BB85B327
:10010000806285BB84B3807F84BB85B3806485BBFC
:1001100000C093B39295907F85B38F7B85BB00C061
:1001200085B3806485BB00C083B38F7025B32F7BFC
:1001300025BB892B089580E00E9476008823DCF39C
:1001400082E090E00197F1F780E00E947600089548
:10015000CF93C82F0E949B0060E08C2F0E9451001B
:10016000CF910895611104C080580E94A80008959D
:1001700080540E94A800089581E00E94A80008957C
:10018000CF93C82F0E949B00CA3049F4803410F4EA
:1001900080E401C080E080580E94A80004C061E0B3
:1001A0008C2F0E945100CF910895CF93DF93FC01D3
:1001B00003C00E94C000FE01EF01219680818111E1
:1001C000F8CFDF91CF9108951F93CF93DF93182F2E
:1001D00084B38F6784BB80E89EE30197F1F785B312
:1001E000826085BB85B3816085BB0E94490080E841
:1001F00093E10197F1F70E944900C0E4D0E0CE01FD
:100200000197F1F70E944900CE010197F1F785B3FC
:100210008E7F85BB0E9449002197F1F788E20E94FA
:10022000A80088E00E94A8000E94BC0086E00E940E
:10023000A800812F0E94A800DF91CF911F910895FF
:1002400097B321E030E0082E02C0220F331F0A943A
:10025000E2F7922B97BB98B3922B98BB4DE04A954F
:10026000F1F7000048B3922F9095492348BBEDEE7B
:10027000F2E03197F1F700C0000048B3422B48BBD1
:1002800047B3942397BBF8ECFA95F1F746B350E0E7
:1002900024233523A90102C0559547958A95E2F795
:1002A000CA01E3EFF1E03197F1F700C000000895D3
:1002B00097B321E030E002C0220F331F6A95E2F7C6
:1002C000622F292B27BB20E030E028C098B3962B63
:1002D00098BB00C000C098B3762F7095972398BB49
:1002E000482F50E0022E02C0559547950A94E2F738
:1002F00040FF04C098B3962B98BB03C098B37923F2
:1003000078BB9DE59A95F1F7000098B3962B98BBC2
:100310009DE09A95F1F700002F5F3F4F283031059F
:10032000ACF28DE08A95F1F700000895E82F40E0E7
:1003300050E080E038C097B321E030E00E2E02C0DC
:10034000220F331F0A94E2F7922B97BB98B3922B9C
:1003500098BB00C000C068B3922F9095692368BB1A
:1003600000C000C068B3622B68BB67B3962397BB1D
:1003700099E09A95F1F7000066B370E026233723E1
:100380000E2E02C0359527950A94E2F7042E02C07E
:10039000220F331F0A94E2F7822B9DE59A95F1F71D
:1003A00000004F5F5F4F483051052CF208951F93B6
:1003B000CF93DF93EC010E942001BE018CEC0E94E0
:1003C0005801BE0184E40E9458012FEF80E792E0BB
:1003D000215080409040E1F700C00000CE010E9413
:1003E0002001BE018CEC0E945801BE018EEB0E94E0
:1003F0005801CE010E949601182FCE010E9496014D
:10040000982F987F11F080951195682F70E0762FC6
:100410006627610F711D072E000C880B990B0E9437
:100420003A0620E030E040E25FE30E94C60620E0AA
:1004300030E040E05FE30E9424050E940206CB0109
:10044000DF91CF911F9108954F925F926F927F92AB
:100450008F929F92AF92BF92CF92DF92EF92FF92D4
:100460006091B2007091B3008091BC009091BD008A
:10047000681B790B072E000C880B990B0E943A061B
:100480006B017C018091B2009091B3002091BE007D
:100490003091BF00BC01621B730B072E000C880B50
:1004A000990B0E943A064B015C014090AE005090BF
:1004B000AF006090B0007090B1009B01AC01C7012B
:1004C000B6010E9490059B01AC0160E070E080E8FD
:1004D0009FE30E9423059B01AC01C301B2010E946E
:1004E00090056093B4007093B5008093B60090932C
:1004F000B700C701B60190582091B4003091B50003
:100500004091B6005091B7000E94C606A501940123
:100510000E9490056093B8007093B9008093BA0070
:100520009093BB00FF90EF90DF90CF90BF90AF9083
:100530009F908F907F906F905F904F900895CF9293
:10054000DF92EF92FF926091B8007091B9008091B4
:10055000BA009091BB0027EC3BE644EB53E40E94C9
:10056000C6062091B8003091B9004091BA00509170
:10057000BB000E94C6066B017C016091B8007091BF
:10058000B9008091BA009091BB0020E030EA4BE6C0
:1005900053E40E94C6069B01AC01C701B6010E944C
:1005A00023052FE335EB4AE053E40E9424050E9423
:1005B00009066CBF20E52A95F1F76091B4007091AF
:1005C000B5008091B6009091B70027EC3BE644EB74
:1005D00053E40E94C6062091B4003091B5004091CA
:1005E000B6005091B7000E94C6066B017C01609175
:1005F000B4007091B5008091B6009091B70020E0F2
:1006000030EA4BE653E40E94C6069B01AC01C701E9
:10061000B6010E9423052FE335EB4AE053E40E9424
:1006200024050E94090663BD30E53A95F1F780E0A4
:1006300090E00AC04FEF24E33CE0415020403040BE
:10064000E1F700C0000001968B3091059CF31CBEC1
:1006500040E54A95F1F713BC80E58A95F1F7FF90E4
:10066000EF90DF90CF900895FC01808190E002C070
:10067000959587956A95E2F7F1E08F278170089547
:10068000CF92DF92EF92FF920F931F93CF93DF935E
:100690007B018A0120EFFC0120838FEFF70180832B
:1006A000D7E043C0CD2ED12C81E090E00D2E02C0CA
:1006B000880F991F0A94E2F78095F7018083F2E092
:1006C000FA95F1F700C0C0E02DC06C2FC8010E9460
:1006D0003403882331F12FE788E391E021508040F3
:1006E0009040E1F700C000006C2FC8010E94340365
:1006F0008111FACFEFE7F8E321E0E150F04020402C
:10070000E1F700C00000E7E0F0E0EC19FD09EE0FB2
:10071000FF1FEE0FFF1FE05AFF4FEC0FF11D80810E
:1007200008C0CF5FC43088F2D150D43008F0BACFBF
:10073000B4CFDF91CF911F910F91FF90EF90DF9099
:10074000CF900895789487B3886087BB88B388700A
:1007500088BB12BE1CBE9CE693BF81B3806881BB80
:1007600082B3807882BB14BC13BC95BD8CE00E9420
:10077000E40080E090E00E94D7019093BF00809356
:10078000BE0081E090E00E94D7019093BD0080936D
:10079000BC000E94BC0080E790E00E94D50061E0B0
:1007A00080E00E94B20049E350E06BE370E08AE32E
:1007B00090E00E944003C82F80E38C0F0E94C0008D
:1007C0008C2F90E09C01220F331F880F991F880FF8
:1007D000991F880F991F820F931F9093B3008093E6
:1007E000B20049E350E06BE370E08AE390E00E94DE
:1007F0004003C82F80E38C0F0E94C0008091B2009C
:100800009091B3008C0F911D9093B3008093B20030
:100810002FEF84E39CE0215080409040E1F700C03E
:1008200000000E94BC0082E890E00E94D50061E0D8
:1008300080E00E94B20083E990E00E94D50049E385
:1008400050E06BE370E08AE390E00E944003C82F21
:1008500080E38C0F0E94C0006C2F70E080E090E07D
:100860000E943A0620E030E040E251E40E94900508
:100870006093AE007093AF008093B0009093B1008E
:1008800049E350E06BE370E08AE390E00E944003AC
:10089000C82F80E38C0F0E94C0006C2F70E080E0B6
:1008A00090E00E943A0620E030E048EC52E40E94DA
:1008B00090052091AE003091AF004091B000509172
:1008C000B1000E9424056093AE007093AF00809346
:1008D000B0009093B1002FEF84E39CE02150804062
:1008E0009040E1F700C000000E94BC0080E090E072
:1008F0000E94D7019093BF008093BE002AE12A9501
:10090000F1F700C08091BE009091BF0004E610E0B6
:10091000B8010E94330780E3860F0E94C0008091D7
:10092000BE009091BF00CAE0D0E0BE010E94330734
:10093000CB01BE010E943307805D0E94C0008EE2A1
:100940000E94C0008091BE009091BF00BE010E9435
:100950003307805D0E94C00086E990E00E94D500C8
:1009600061E080E00E94B20081E090E00E94D70147
:100970009093BD008093BC008AE18A95F1F700C096
:100980008091BC009091BD00B8010E94330780E3C4
:10099000860F0E94C0008091BC009091BD00BE01F6
:1009A0000E943307CB01BE010E943307805D0E9485
:1009B000C0008EE20E94C0008091BC009091BD00FA
:1009C000BE010E943307805D0E94C00086E990E06E
:1009D0000E94D5009FEF29E688E191502040804099
:1009E000E1F700C000008091BE009091BF00BE0101
:1009F0000E9433077093BF006093BE008091BC00DB
:100A00009091BD00BE010E9433077093BD006093BA
:100A1000BC000E94BC0089E990E00E94D5000E94C1
:100A200024020E949F020E94BC0083EA90E00E9480
:100A3000D5009FEF24E38CE0915020408040E1F707
:100A400000C0000096CE5058BB27AA270E943B0545
:100A50000C948C060E947E0638F00E94850620F0D9
:100A600039F49F3F19F426F40C947B060EF4E095BC
:100A7000E7FB0C947506E92F0E949D0658F3BA1700
:100A8000620773078407950720F079F4A6F50C94A4
:100A9000BF060EF4E0950B2EBA2FA02D0B01B90165
:100AA00090010C01CA01A0011124FF27591B99F0E4
:100AB000593F50F4503E68F11A16F040A22F232FF0
:100AC000342F4427585FF3CF469537952795A79540
:100AD000F0405395C9F77EF41F16BA0B620B730BE7
:100AE000840BBAF09150A1F0FF0FBB1F661F771F58
:100AF000881FC2F70EC0BA0F621F731F841F48F40D
:100B0000879577956795B795F7959E3F08F0B0CF95
:100B10009395880F08F09927EE0F9795879508957C
:100B20000E94A4050C948C060E94850658F00E9431
:100B30007E0640F029F45F3F29F00C9475065111B0
:100B40000C94C0060C947B060E949D0668F39923C2
:100B5000B1F3552391F3951B550BBB27AA276217B9
:100B60007307840738F09F5F5F4F220F331F441FC6
:100B7000AA1FA9F335D00E2E3AF0E0E832D09150FA
:100B80005040E695001CCAF72BD0FE2F29D0660FE7
:100B9000771F881FBB1F261737074807AB07B0E82A
:100BA00009F0BB0B802DBF01FF2793585F4F3AF030
:100BB0009E3F510578F00C9475060C94C0065F3F7B
:100BC000E4F3983ED4F3869577956795B795F795B6
:100BD0009F5FC9F7880F911D9695879597F908959E
:100BE000E1E0660F771F881FBB1F6217730784073A
:100BF000BA0720F0621B730B840BBA0BEE1F88F749
:100C0000E09508950E9409066894B1110C94C006FD
:100C100008950E94A50688F09F5798F0B92F99274C
:100C2000B751B0F0E1F0660F771F881F991F1AF0D7
:100C3000BA95C9F714C0B13091F00E94BF06B1E077
:100C400008950C94BF06672F782F8827B85F39F076
:100C5000B93FCCF3869577956795B395D9F73EF470
:100C600090958095709561957F4F8F4F9F4F089518
:100C7000E89409C097FB3EF4909580957095619536
:100C80007F4F8F4F9F4F9923A9F0F92F96E9BB27EC
:100C90009395F695879577956795B795F111F8CF68
:100CA000FAF4BB0F11F460FF1BC06F5F7F4F8F4FD3
:100CB0009F4F16C0882311F096E911C0772321F0C9
:100CC0009EE8872F762F05C0662371F096E8862F61
:100CD00070E060E02AF09A95660F771F881FDAF7B8
:100CE000880F9695879597F9089597F99F6780E8FB
:100CF00070E060E008959FEF80EC089500240A946E
:100D00001616170618060906089500240A941216E6
:100D10001306140605060895092E0394000C11F419
:100D2000882352F0BB0F40F4BF2B11F460FF04C0C6
:100D30006F5F7F4F8F4F9F4F089557FD9058440F1F
:100D4000551F59F05F3F71F04795880F97FB991F2A
:100D500061F09F3F79F087950895121613061406E7
:100D6000551FF2CF4695F1DF08C016161706180674
:100D7000991FF1CF86957105610508940895E8944F
:100D8000BB2766277727CB0197F908950E94D906DC
:100D90000C948C060E947E0638F00E94850620F096
:100DA000952311F00C9475060C947B0611240C9479
:100DB000C0060E949D0670F3959FC1F3950F50E009
:100DC000551F629FF001729FBB27F00DB11D639FFD
:100DD000AA27F00DB11DAA1F649F6627B00DA11DA3
:100DE000661F829F2227B00DA11D621F739FB00D49
:100DF000A11D621F839FA00D611D221F749F3327B9
:100E0000A00D611D231F849F600D211D822F762F51
:100E10006A2F11249F5750409AF0F1F088234AF02E
:100E2000EE0FFF1FBB1F661F771F881F915050409A
:100E3000A9F79E3F510580F00C9475060C94C006EE
:100E40005F3FE4F3983ED4F3869577956795B79521
:100E5000F795E7959F5FC1F7FE2B880F911D96953B
:100E6000879597F9089597FB072E16F4009407D0FD
:100E700077FD09D00E94470707FC05D03EF4909506
:100E800081959F4F0895709561957F4F0895AA1B96
:100E9000BB1B51E107C0AA1FBB1FA617B70710F065
:100EA000A61BB70B881F991F5A95A9F78095909597
:0A0EB000BC01CD010895F894FFCFB6
:100EBA000102030A0405060B0708090C0E000F0DB0
:100ECA0054656D7065726174757261202843293AA0
:100EDA00200043617564616C20284C2F6D696E296E
:100EEA003A2000302E002043004573706572652E4B
:0E0EFA002E2E0047726163696173203A290051
:00000001FF
