S00D000050424C5F322E73726563A8
S11300000C942A000C9447000C9447000C9447006D
S11300100C9447000C942F010C9447000C94470057
S11300200C9447000C9447000C9447000C94470030
S11300300C9447000C9447000C9447000C94470020
S11300400C9447000C9447000C9447000C94470010
S11300500C94470011241FBECFE5D4E0DEBFCDBF12
S113006010E0A0E6B0E0E0E1FFE002C005900D92F0
S1130070AA38B107D9F720E0AAE8B0E001C01D9280
S1130080A539B207E1F70E9489040C9486070C9401
S11300900000683008F06FC0843008F06CC0813014
S11300A001F130F08230B1F1833009F44CC008958D
S11300B0413059F42AB381E090E002C0880F991FBF
S11300C06A95E2F7822B8ABB08952AB381E090E017
S11300D002C0880F991F6A95E2F7809582238ABB34
S11300E00895413059F427B381E090E002C0880FAD
S11300F0991F6A95E2F7822B87BB089527B381E0A5
S113010090E002C0880F991F6A95E2F780958223D8
S113011087BB0895413059F424B381E090E002C0D4
S1130120880F991F6A95E2F7822B84BB089524B344
S113013081E090E002C0880F991F6A95E2F78095EC
S1130140822384BB0895413059F421B381E090E0C7
S113015002C0880F991F6A95E2F7822B81BB08952C
S113016021B381E090E002C0880F991F6A95E2F7FD
S11301708095822381BB0895683008F06FC0843075
S113018008F06CC0813001F130F08230B1F183307D
S113019009F44CC00895413059F42BB381E090E048
S11301A002C0880F991F6A95E2F7822B8BBB0895D2
S11301B02BB381E090E002C0880F991F6A95E2F7A3
S11301C0809582238BBB0895413059F428B381E094
S11301D090E002C0880F991F6A95E2F7822B88BBD2
S11301E0089528B381E090E002C0880F991F6A95B2
S11301F0E2F78095822388BB0895413059F425B3F2
S113020081E090E002C0880F991F6A95E2F7822B83
S113021085BB089525B381E090E002C0880F991F43
S11302206A95E2F78095822385BB0895413059F49D
S113023022B381E090E002C0880F991F6A95E2F72B
S1130240822B82BB089522B381E090E002C0880F24
S1130250991F6A95E2F78095822382BB08951F92C5
S11302600F920FB60F9211242F933F934F935F93E6
S11302706F937F938F939F93AF93BF93EF93FF936A
S1130280E0918A00F0918B00309709F00995FF9175
S1130290EF91BF91AF919F918F917F916F915F91FA
S11302A04F913F912F910F900FBE0F901F90189573
S11302B0FC0191B39F7B91BB8CE08FBD9EB52081E7
S11302C0987F922B9EBD2EB5918130E4939FC001FF
S11302D01124922F9F7B892B8EBD1DBC1CBC17BC87
S11302E016BC89B7806289BF089590938B00809370
S11302F08A0008952EB530E4839FC00111242F7B1A
S1130300822B8EBD089586B597B508951DBC1CBC7F
S113031008958BB380648BBB00C08BB38F7B8BBB86
S11303200895CF93DF93D82F662321F08BB3806198
S11303308BBB03C08BB38F7E8BBB8BB38F7D8BBB8F
S11303408AB38F608ABBCBB3C07F8D2F82958F70A9
S11303508C2B8BBB0E948901DF70DC2BDBBB0E94E2
S11303608901CF60CBBBDF91CF910895882321F021
S11303708BB380618BBB03C08BB38F7E8BBB8BB382
S113038080628BBB8AB3807F8ABB8BB380648BBB58
S113039000C099B39295907F8BB38F7B8BBB00C0C9
S11303A08BB380648BBB00C089B38F702BB32F7B5E
S11303B02BBB892B089580E00E94B6018823DCF3CF
S11303C082E090E00197F1F780E00E94B601089581
S11303D0CF93C82F0E94DB0160E08C2F0E94910113
S11303E0CF91089581E00E94E8010895CF93C82F2A
S11303F00E94DB01CA3049F4803410F480E401C067
S113040080E080580E94E80104C061E08C2F0E94C3
S11304109101CF910895CF93DF93FC0103C00E9413
S1130420F601FE01EF01219680818111F8CFDF9161
S1130430CF9108951F93CF93DF93182F8AB38F67BB
S11304408ABB80E89EE30197F1F78BB382608BBB94
S11304508BB381608BBB0E94890180E893E1019793
S1130460F1F70E948901C0E4D0E0CE010197F1F7D1
S11304700E948901CE010197F1F78BB38E7F8BBB6C
S11304800E9489012197F1F788E20E94E80188E03F
S11304900E94E8010E94F20186E00E94E801812F97
S11304A00E94E801DF91CF911F91089570E05BC035
S11304B0811120C061110EC09091610090FF02C0B3
S11304C020E801C020E0909161009695922B9093D2
S11304D061002FC0E09161002E2F221F2227221FCE
S11304E090916100E92FF0E0EE0FFF1FE22BE09303
S11304F061001FC061110EC09091600090FF02C0A6
S113050020E801C020E0909160009695922B909392
S113051060000FC0E09160002E2F221F2227221FAF
S113052090916000E92FF0E0EE0FFF1FE22BE093C3
S113053060002091610090916000207F9F70922B59
S113054095BBE7E5FBE13197F1F700C000003F5FA1
S113055001C030E0323308F4ABCF5F5F01C050E03C
S11305605430B8F37F5F7417D0F30895CF93DF93BB
S1130570CDB7DEB760970FB6F894DEBF0FBECDBF20
S11305804AE0BE016F5F7F4F0E945107CE01019682
S11305900E940B0260960FB6F894DEBF0FBECDBF6B
S11305A0DF91CF910895CF93DF93EC0188B38068F6
S11305B088BBCE010E94B60280E090E00AC02FEF13
S11305C030E742E0215030404040E1F700C00000F5
S11305D001968C179D0798F388B38F7788BB8FE8B3
S11305E091E00197F1F700C00000DF91CF910895E9
S11305F08F929F92AF92BF92CF92DF92EF92FF922F
S11306000F931F93CF93DF938B010397BC0180E07B
S113061090E00E94560620E030E040EC5FE30E9448
S1130620E40620E030E048EC52E40E94490520E072
S113063030E040E251E40E94B5054B015C01011534
S1130640110511F401E010E0B80180E090E00E948F
S113065056066B017C0120ED3FE049E450E40E9422
S1130660E4069B01AC01C701B6010E94E4069B01AC
S1130670AC01C501B4010E94E4060E942706EB0107
S113068003301105F8F420E030E040E85EE3C701F0
S1130690B6010E9449056B017C0120ED3FE049E46D
S11306A050E40E94E4069B01AC01C701B6010E941C
S11306B0E4069B01AC01C501B4010E94E4060E945A
S11306C02706EB01CE010E94B60282E690E00E946A
S11306D00B02CF3E82E0D80778F0BE0180E090E0C4
S11306E00E9456062AE939E949E55FE30E94E406D7
S11306F00E942706CB010EC0BE0180E090E00E945C
S1130700560623EC35EF48E65FE30E94E4060E94B8
S11307102706CB01DF91CF911F910F91FF90EF90AE
S1130720DF90CF90BF90AF909F908F900895CF931C
S1130730DF9343E061E081E00E9456022FEF84E3FF
S11307409CE0215080409040E1F700C000000E94EE
S11307503405909392008093910025E32A95F1F754
S11307600000809191009091920090939400809366
S113077093008FEF94E32CE0815090402040E1F708
S113078000C000000E943405909392008093910071
S113079085E38A95F1F70000809191009091920091
S11307A090939400809393000E94F20189E690E074
S11307B00E940B0220919100309192008AE090E017
S11307C0821B930B0E94B6029FE72AE186E09150B8
S11307D020408040E1F700C0000010929000109289
S11307E08F0014C00E94340590939400809393006A
S11307F080918F0090919000019690939000809347
S11308008F0041E061E080E00E94560280919100F7
S113081090919200029620919300309194002817B1
S1130820390760F480919100909192000297209191
S113083093003091940082179307A0F20E94F20172
S1130840809191009091920082E790E00E940B02C7
S113085060918F00709190006350710980E090E086
S11308600E94560620E030E040EC5FE30E94E4067C
S113087020E030E048EC52E40E9449050E9427063B
S1130880CB010E94B6029FEF28E08DE391502040F7
S11308908040E1F700C000000E94F20180919100C5
S11308A0909192006AE070E0681B790B80918F0050
S11308B0909190000E94F8020E94D3020E94F201DB
S11308C086E790E00E940B02C0E0D0E006C041E061
S11308D060E080E00E945602219680918F00909102
S11308E09000C817D90798F30E94F2018AE790E0B4
S11308F00E940B02DF91CF910895FC01808190E06A
S113090002C0959587956A95E2F7F1E08F2781708B
S11309100895789487B38E7F87BB88B3816088BB42
S113092087B3806887BB84B38FEF84BB90916100E9
S113093080916000907F8F70892B85BB8AB381681A
S11309408ABB8CE00E941A020E9405050E943405AD
S113095090939200809391002091910030919200A5
S11309608AE090E0821B930B0E94B6028FE790E02E
S11309700E940B022FEF80E792E0215080409040CC
S1130980E1F700C000000E94F20160E086E390E01D
S11309900E947D048823D1F225E32A95F1F7000013
S11309A060E086E390E00E947D048111F9CF85E345
S11309B08A95F1F70000C0E0D0E003C00E949703DD
S11309C02196C430D105D4F34DE060E081E00E946B
S11309D05602BCCF80918C008F5F80938C00813055
S11309E031F40E94860180E00E947A0108958230E9
S11309F059F40E94830190938E0080938D0081E0CE
S1130A000E947A0110928C000895CF93DF9300D056
S1130A10CDB7DEB782E0898381E08A83CE01019677
S1130A200E9458018AEE94E00E94750141E065E05D
S1130A3081E00E94490040E065E081E00E94BC0042
S1130A400F900F90DF91CF91089541E065E081E030
S1130A500E94BC0083E08A95F1F7000040E065E065
S1130A6081E00E94BC0008950E94250560918D00DC
S1130A7070918E0080E090E00E94560626E933E4EF
S1130A804BE85CE30E94E4060E942706CB0108952C
S1130A905058BB27AA270E9460050C94AA060E94FE
S1130AA09C0638F00E94A30620F039F49F3F19F405
S1130AB026F40C9499060EF4E095E7FB0C94930647
S1130AC0E92F0E94BB0658F3BA176207730784071D
S1130AD0950720F079F4A6F50C94DD060EF4E09564
S1130AE00B2EBA2FA02D0B01B90190010C01CA01E4
S1130AF0A0011124FF27591B99F0593F50F4503E8F
S1130B0068F11A16F040A22F232F342F4427585F80
S1130B10F3CF469537952795A795F0405395C9F798
S1130B207EF41F16BA0B620B730B840BBAF0915050
S1130B30A1F0FF0FBB1F661F771F881FC2F70EC0EF
S1130B40BA0F621F731F841F48F4879577956795C2
S1130B50B795F7959E3F08F0B0CF9395880F08F0AE
S1130B609927EE0F9795879508950E94C9050C94CF
S1130B70AA060E94A30658F00E949C0640F029F49D
S1130B805F3F29F00C94930651110C94DE060C94EB
S1130B9099060E94BB0668F39923B1F3552391F398
S1130BA0951B550BBB27AA2762177307840738F0D8
S1130BB09F5F5F4F220F331F441FAA1FA9F335D035
S1130BC00E2E3AF0E0E832D091505040E695001CE9
S1130BD0CAF72BD0FE2F29D0660F771F881FBB1FA3
S1130BE0261737074807AB07B0E809F0BB0B802D81
S1130BF0BF01FF2793585F4F3AF09E3F510578F0AD
S1130C000C9493060C94DE065F3FE4F3983ED4F311
S1130C10869577956795B795F7959F5FC9F7880F80
S1130C20911D9695879597F90895E1E0660F771FD2
S1130C30881FBB1F621773078407BA0720F0621B63
S1130C40730B840BBA0BEE1F88F7E09508950E948E
S1130C50C30688F09F5798F0B92F9927B751B0F081
S1130C60E1F0660F771F881F991F1AF0BA95C9F72C
S1130C7014C0B13091F00E94DD06B1E008950C94E7
S1130C80DD06672F782F8827B85F39F0B93FCCF39A
S1130C90869577956795B395D9F73EF490958095A9
S1130CA0709561957F4F8F4F9F4F0895E89409C0C9
S1130CB097FB3EF490958095709561957F4F8F4F8B
S1130CC09F4F9923A9F0F92F96E9BB279395F695A1
S1130CD0879577956795B795F111F8CFFAF4BB0F1F
S1130CE011F460FF1BC06F5F7F4F8F4F9F4F16C083
S1130CF0882311F096E911C0772321F09EE8872F0D
S1130D00762F05C0662371F096E8862F70E060E0C8
S1130D102AF09A95660F771F881FDAF7880F969541
S1130D20879597F9089597F99F6780E870E060E0E8
S1130D3008959FEF80EC089500240A941616170670
S1130D4018060906089500240A94121613061406B8
S1130D5005060895092E0394000C11F4882352F01B
S1130D60BB0F40F4BF2B11F460FF04C06F5F7F4FD3
S1130D708F4F9F4F089557FD9058440F551F59F0BA
S1130D805F3F71F04795880F97FB991F61F09F3F74
S1130D9079F087950895121613061406551FF2CF9D
S1130DA04695F1DF08C0161617061806991FF1CFED
S1130DB086957105610508940895E894BB27662714
S1130DC07727CB0197F908950E94F7060C94AA0699
S1130DD00E949C0638F00E94A30620F0952311F08F
S1130DE00C9493060C94990611240C94DE060E942C
S1130DF0BB0670F3959FC1F3950F50E0551F629F9A
S1130E00F001729FBB27F00DB11D639FAA27F00D5F
S1130E10B11DAA1F649F6627B00DA11D661F829F86
S1130E202227B00DA11D621F739FB00DA11D621F6B
S1130E30839FA00D611D221F749F3327A00D611D88
S1130E40231F849F600D211D822F762F6A2F11246A
S1130E509F5750409AF0F1F088234AF0EE0FFF1F9D
S1130E60BB1F661F771F881F91505040A9F79E3FF4
S1130E70510580F00C9493060C94DE065F3FE4F376
S1130E80983ED4F3869577956795B795F795E7954A
S1130E909F5FC1F7FE2B880F911D9695879597F953
S1130EA00895BB274A3031F4992322F4BDE290958A
S1130EB081959F4F0C945D07BB27FB015527AA27FB
S1130EC0880F991FAA1FA41710F0A41B83955051D3
S1130ED0B9F7A05DAA3308F0A95DA193009779F74B
S1130EE0B111B1931192CB010C947607DC01FC0192
S1130EF0672F71917723E1F7329704C07C916D934A
S1130F0070836291AE17BF07C8F30895F894FFCFBA
S1130F108888206D6C20402000686F6C6420723AD1
S1130F202000683A20002E2E2E006E657874002072
S10D0F30636D20726164696F0000B4
S9030000FC
